{
  "hex": "01000000014bac7b686e11eb138e67710158b76cbddb9c1cd0adb5d839775277f4591e0708000000004948304502206f5e76037d5c774443c195f1754364611499016dfdb3dee97a78d8b6b83262d7022100b6a0b0cd2d561cf7cd3fe908accf1ee354cfa448eccceada9818f359b1f8895d01ffffffff0200093d00000000001976a914116fae0885d98037c847bb8feaa0f6a7759cceed88ac00f2052a010000001976a914f4b004c3ca2e7f96f9fc5bca767708967af67a4488ac00000000",
  "txid": "87a08fe3e74fa0a6a386c196938594ce0b928bf1550fb2004b02d68b1e7bd893",
  "version": 1,
  "locktime": 0,
  "vin": [
    {
      "txid": "08071e59f477527739d8b5add01c9cdbbd6cb7580171678e13eb116e687bac4b",
      "vout": 0,
      "scriptSig": {
        "asm": "304502206f5e76037d5c774443c195f1754364611499016dfdb3dee97a78d8b6b83262d7022100b6a0b0cd2d561cf7cd3fe908accf1ee354cfa448eccceada9818f359b1f8895d01",
        "hex": "48304502206f5e76037d5c774443c195f1754364611499016dfdb3dee97a78d8b6b83262d7022100b6a0b0cd2d561cf7cd3fe908accf1ee354cfa448eccceada9818f359b1f8895d01"
      },
      "sequence": 4294967295
    }
  ],
  "vout": [
    {
      "value": 0.04000000,
      "n": 0,
      "scriptPubKey": {
        "asm": "OP_DUP OP_HASH160 116fae0885d98037c847bb8feaa0f6a7759cceed OP_EQUALVERIFY OP_CHECKSIG",
        "hex": "76a914116fae0885d98037c847bb8feaa0f6a7759cceed88ac",
        "reqSigs": 1,
        "type": "pubkeyhash",
        "addresses": [
          "12bCGuqBso4K8pKoNFXHUR4eMZg8j4xqN3"
        ]
      }
    },
    {
      "value": 50.00000000,
      "n": 1,
      "scriptPubKey": {
        "asm": "OP_DUP OP_HASH160 f4b004c3ca2e7f96f9fc5bca767708967af67a44 OP_EQUALVERIFY OP_CHECKSIG",
        "hex": "76a914f4b004c3ca2e7f96f9fc5bca767708967af67a4488ac",
        "reqSigs": 1,
        "type": "pubkeyhash",
        "addresses": [
          "1PJnjo4n2Rt5jWTUrCRr4inK2XmFPXqFC7"
        ]
      }
    }
  ],
  "blockhash": "00000000000058e5fee294c63ad70dcc160b27662571c41720b6595f77a38ee7",
  "confirmations": 224881,
  "time": 1303323136,
  "blocktime": 1303323136
}
