{
  "hex": "0100000001e7fcf39ee6b86f1595c55b16b60bf4f297988cb9519f5d42597e7fb721e591c6010000008b483045022100ac572b43e78089851202cfd9386750b08afc175318c537f04eb364bf5a0070d402203f0e829d4baea982feaf987cb9f14c85097d2fbe89fba3f283f6925b3214a97e0141048922fa4dc891f9bb39f315635c03e60e019ff9ec1559c8b581324b4c3b7589a57550f9b0b80bc72d0f959fddf6ca65f07223c37a8499076bd7027ae5c325fac5ffffffff0140420f00000000001976a914c4eb47ecfdcf609a1848ee79acc2fa49d3caad7088ac00000000",
  "txid": "f4515fed3dc4a19b90a317b9840c243bac26114cf637522373a7d486b372600b",
  "version": 1,
  "locktime": 0,
  "vin": [
    {
      "txid": "c691e521b77f7e59425d9f51b98c9897f2f40bb6165bc595156fb8e69ef3fce7",
      "vout": 1,
      "scriptSig": {
        "asm": "3045022100ac572b43e78089851202cfd9386750b08afc175318c537f04eb364bf5a0070d402203f0e829d4baea982feaf987cb9f14c85097d2fbe89fba3f283f6925b3214a97e01 048922fa4dc891f9bb39f315635c03e60e019ff9ec1559c8b581324b4c3b7589a57550f9b0b80bc72d0f959fddf6ca65f07223c37a8499076bd7027ae5c325fac5",
        "hex": "483045022100ac572b43e78089851202cfd9386750b08afc175318c537f04eb364bf5a0070d402203f0e829d4baea982feaf987cb9f14c85097d2fbe89fba3f283f6925b3214a97e0141048922fa4dc891f9bb39f315635c03e60e019ff9ec1559c8b581324b4c3b7589a57550f9b0b80bc72d0f959fddf6ca65f07223c37a8499076bd7027ae5c325fac5"
      },
      "sequence": 4294967295
    }
  ],
  "vout": [
    {
      "value": 0.01000000,
      "n": 0,
      "scriptPubKey": {
        "asm": "OP_DUP OP_HASH160 c4eb47ecfdcf609a1848ee79acc2fa49d3caad70 OP_EQUALVERIFY OP_CHECKSIG",
        "hex": "76a914c4eb47ecfdcf609a1848ee79acc2fa49d3caad7088ac",
        "reqSigs": 1,
        "type": "pubkeyhash",
        "addresses": [
          "1JxDJCyWNakZ5kECKdCU9Zka6mh34mZ7B2"
        ]
      }
    }
  ],
  "blockhash": "0000000000004273d89d3f220a9d3dbd45a4fd1c028b51e170f478da11352187",
  "confirmations": 233728,
  "time": 1293528528,
  "blocktime": 1293528528
}
